:100000000C9434000C9451000C9451000C94510049
:100010000C9451000C9451000C9451000C9451001C
:100020000C9451000C9451000C9451000C94040158
:100030000C9451000C9451000C9451000C94C3008A
:100040000C9451000C9451000C9448010C945100F4
:100050000C9451000C9451000C9451000C945100DC
:100060000C9451000C94510011241FBECFEFD8E026
:10007000DEBFCDBF11E0A0E0B1E0E8E2F6E002C0F3
:1000800005900D92A830B107D9F721E0A8E0B1E0C2
:1000900001C01D92AE31B207E1F70E9453000C94EB
:1000A00012030C940000CF93DF93CDB7DEB78AE242
:1000B00090E020EFFC01208384E290E02FE0FC013F
:1000C00020830E94AC010E94890165E081E00E94CA
:1000D000D2010E9427027894FFCFCF93DF9300D004
:1000E000CDB7DEB79A83898389819A81FC018081AB
:1000F00091819C012F5F3F4F89819A81FC0131835F
:10010000208389819A81FC0180819181883E93407E
:1001100054F089819A81FC0182818F5F282F898127
:100120009A81FC01228389819A81FC0182818C332E
:1001300054F089819A81FC0183818F5F282F898106
:100140009A81FC01238389819A81FC0183818C330C
:1001500054F089819A81FC0184818F5F282F8981E5
:100160009A81FC01248389819A81FC0184818831F0
:1001700024F089819A81FC01148200000F900F9075
:10018000DF91CF9108951F920F9200905F000F9220
:1001900011242F933F934F935F936F937F938F938C
:1001A0009F93AF93BF93EF93FF93CF93DF931F92F0
:1001B000CDB7DEB788E091E00E946D0080910A0122
:1001C00089838BE290E029812295207FFC012083A6
:1001D00085E290E020910D01FC01208300000F904A
:1001E000DF91CF91FF91EF91BF91AF919F918F914F
:1001F0007F916F915F914F913F912F910F9000925E
:100200005F000F901F9018951F920F9200905F0053
:100210000F9211242F933F934F935F936F937F938C
:100220008F939F93AF93BF93EF93FF93CF93DF93FE
:100230001F92CDB7DEB78EE080930B0188E091E08E
:100240000E946D0080910A0189838BE290E02981F0
:100250002295207FFC01208385E290E020910E0111
:10026000FC01208300000F90DF91CF91FF91EF916F
:10027000BF91AF919F918F917F916F915F914F91BE
:100280003F912F910F9000925F000F901F90189553
:100290001F920F9200905F000F9211242F933F93B3
:1002A0004F935F936F937F938F939F93AF93BF937E
:1002B000EF93FF93CF93DF93CDB7DEB768E070E0A5
:1002C00086E191E00E948202019721F486E191E0AB
:1002D0000E94DF0285E290E025E230E0F901308102
:1002E00020E22327FC0120830000DF91CF91FF91C2
:1002F000EF91BF91AF919F918F917F916F915F919E
:100300004F913F912F910F9000925F000F901F909F
:100310001895CF93DF93CDB7DEB786E490E0FC016C
:10032000108288E490E02AEFFC01208384E490E0CE
:1003300024E430E0F90120812260FC0120838EE674
:1003400090E02EE630E0F90120812460FC0120835A
:100350000000DF91CF910895CF93DF93CDB7DEB743
:1003600084E890E0FC011182108288E890E029E0A6
:100370003DE3FC013183208381E890E021E830E017
:10038000F90120812860FC0120838FE690E02FE6B0
:1003900030E0F90120812260FC0120830000DF9120
:1003A000CF910895CF93DF9300D0CDB7DEB7898387
:1003B0006A838981882F90E081309105D1F0823065
:1003C000910559F1892B09F03CC085E490E025E4C2
:1003D00030E0F9012081287FFC01208385E490E052
:1003E00025E430E0F90130812A81232BFC012083B0
:1003F00028C081E890E021E830E0F9012081287FE1
:10040000FC01208381E890E021E830E0F9013081AF
:100410002A81232BFC01208314C081EB90E021EB87
:1004200030E0F9012081287FFC01208381EB90E0FE
:1004300021EB30E0F90130812A81232BFC0120835C
:10044000000000000F900F90DF91CF910895CF939F
:10045000DF93CDB7DEB784EC90E027E630E0FC0117
:100460003183208381EC90E028E9FC01208382EC39
:1004700090E026E0FC0120830000DF91CF910895F9
:10048000CF93DF931F92CDB7DEB786EC90E0FC01EF
:100490008081898389810F90DF91CF910895CF93D7
:1004A000DF9300D01F92CDB7DEB789836A834B8379
:1004B0008A81882331F489818C3319F481E090E0BA
:1004C0001BC08A81882331F489818C3319F080E044
:1004D00090E012C08A81282F30E08B81882F90E035
:1004E00002972817390731F489818E3319F481E096
:1004F00090E002C080E090E00F900F900F90DF91AD
:10050000CF9108950F931F93CF93DF9300D01F9245
:10051000CDB7DEB79A8389836B8380910F01909169
:1005200010019C0189819A818C01020F131F0E9486
:100530004002F801808380910F0190911001892B76
:10054000C9F480910F0190911001282F89819A811F
:10055000FC0180814B81622F0E944F02019799F428
:1005600080910F019091100101969093100180935A
:100570000F0109C080910F01909110010196909395
:10058000100180930F018B81882F90E09C012150F6
:10059000310980910F01909110012817390731F42A
:1005A0001092100110920F0181E001C080E00F90C5
:1005B0000F900F90DF91CF911F910F910895CF93DE
:1005C000DF93CDB7DEB72A970FB6F894DEBF0FBE24
:1005D000CDBF9A87898728E0E0E0F1E0CE0101965F
:1005E000DC0101900D922A95E1F789859A8560E0FA
:1005F00071E00E940903892B11F481E001C080E0C1
:100600002A960FB6F894DEBF0FBECDBFDF91CF9113
:100610000895FB01DC018D91019080190110D9F33F
:08062000990B0895F894FFCF37
:080628003C54455354303E00E0
:00000001FF
