S01E0000323032342D4D5050322D4D61696E2D50726F6A6563742E737265633C
S11300000C9434000C9449000C9449000C9449005D
S11300100C9449000C9449000C9449000C94490038
S11300200C9449000C9449000C9449000C94580019
S11300300C9449000C9449000C9449000C94490018
S11300400C9449000C9449000C9449000C94490008
S11300500C9449000C9449000C9449000C944900F8
S11300600C9449000C94490011241FBECFEFD8E032
S1130070DEBFCDBF11E0A0E0B1E0E8EAF1E002C0EC
S113008005900D92A230B107D9F70E944B000C9451
S1130090D2000C94000084B1806284B90E948C0068
S11300A065E081E00E94A1000E94C0007894FFCF27
S11300B01F920F920FB60F9211242F933F934F93D9
S11300C05F936F937F938F939F93AF93BF93EF93BC
S11300D0FF93809100018F5F809300018B3519F4A9
S11300E081E480930001809100010E94CD0095B1CC
S11300F080E2892785B9FF91EF91BF91AF919F91DC
S11301008F917F916F915F914F913F912F910F90BC
S11301100FBE0F901F9018951092850010928400C6
S113012089E09DE39093890080938800E1E8F0E002
S1130130808188608083EFE6F0E080818260808344
S11301400895813059F018F0823089F0089585B50A
S1130150887F85BD85B5682B65BD0895E1E8F0E02D
S11301608081887F80838081682B60830895E1EBA0
S1130170F0E08081887F80838081682B608308958C
S113018087E690E09093C5008093C40088E980934B
S1130190C10086E08093C20008959091C0008093CE
S10B01A0C6000895F894FFCF96
S10501A8410010
S9030000FC
