S01E0000323032342D4D5050322D4D61696E2D50726F6A6563742E737265633C
S11300000C9434000C9451000C9451000C94510045
S11300100C9451000C9451000C9451000C94070161
S11300200C9451000C9451000C9451000C94F40065
S11300300C9451000C9451000C9451000C94E10068
S11300400C9451000C9451000C9436010C94510002
S11300500C9451000C9451000C9451000C945100D8
S11300600C9451000C94510011241FBECFEFD8E022
S1130070DEBFCDBF11E0A0E0B1E0E8EBF5E002C0E7
S113008005900D92A830B107D9F721E0A8E0B1E0BE
S113009001C01D92AC31B207E1F70E9453000C94E9
S11300A0DA020C940000CF93DF93CDB7DEB78AE277
S11300B090E020EFFC01208384E290E02FE0FC013B
S11300C020838BE380930B010E94770163E082E03D
S11300D00E949A010E94EF017894FFCFCF93DF939F
S11300E000D0CDB7DEB79A83898389819A81FC01D8
S11300F0808191819C012150310989819A81FC017F
S11301003183208389819A81FC01808191819923A3
S11301108CF489819A8128EE33E0FC0131832083B9
S113012089819A81FC0182818150282F89819A8159
S1130130FC01228389819A81FC01828188237CF4D9
S113014089819A812BE3FC01228389819A81FC01B4
S113015083818150282F89819A81FC01238389819D
S11301609A81FC01838188237CF489819A812BE321
S1130170FC01238389819A81FC0184818150282F89
S113018089819A81FC01248389819A81FC0184817B
S113019088238CF489819A81FC01118210828981DF
S11301A09A81FC01128289819A81FC0113828981DE
S11301B09A81FC01148200000F900F90DF91CF917F
S11301C008951F920F9200905F000F921124CF9315
S11301D0DF93CDB7DEB70000DF91CF910F9000928F
S11301E05F000F901F9018951F920F9200905F0070
S11301F00F921124CF93DF93CDB7DEB70000DF91C8
S1130200CF910F9000925F000F901F9018951F924E
S11302100F9200905F000F9211242F933F934F93FE
S11302205F936F937F938F939F93AF93BF93EF935A
S1130230FF93CF93DF93CDB7DEB788E091E00E94C0
S11302406E000000DF91CF91FF91EF91BF91AF91CC
S11302509F918F917F916F915F914F913F912F91DA
S11302600F9000925F000F901F9018951F920F92AD
S113027000905F000F9211242F933F934F935F934D
S11302806F937F938F939F93AF93BF93EF93FF935A
S1130290CF93DF93CDB7DEB768E070E084E191E0FF
S11302A00E944A02019721F484E191E00E94A7028E
S11302B085E290E025E230E0F901308120E2232755
S11302C0FC0120830000DF91CF91FF91EF91BF915A
S11302D0AF919F918F917F916F915F914F913F91DA
S11302E02F910F9000925F000F901F901895CF935D
S11302F0DF93CDB7DEB782EB90E0FC01108283EB95
S113030090E02AEFFC01208380EB90E020EB30E0CA
S1130310F90120812260FC01208380E790E020E73E
S113032030E0F90120812260FC0120830000DF918C
S1130330CF910895CF93DF9300D0CDB7DEB78983F3
S11303406A838981882F90E081309105D1F08230D1
S1130350910559F1892B09F03CC085E490E025E42E
S113036030E0F9012081287FFC01208385E490E0BE
S113037025E430E0F90130812A81232BFC0120831C
S113038028C081E890E021E830E0F9012081287F4D
S1130390FC01208381E890E021E830E0F90130811C
S11303A02A81232BFC01208314C081EB90E021EBF4
S11303B030E0F9012081287FFC01208381EB90E06B
S11303C021EB30E0F90130812A81232BFC012083C9
S11303D0000000000F900F90DF91CF910895CF930C
S11303E0DF93CDB7DEB784EC90E027E630E0FC0184
S11303F03183208381EC90E028E9FC01208382ECA6
S113040090E026E0FC0120830000DF91CF91089565
S1130410CF93DF931F92CDB7DEB786EC90E0FC015B
S11304208081898389810F90DF91CF910895CF9343
S1130430DF9300D01F92CDB7DEB789836A834B83E5
S11304408A81882331F489818C3319F481E090E026
S11304501BC08A81882331F489818C3319F080E0B0
S113046090E012C08A81282F30E08B81882F90E0A1
S113047002972817390731F489818E3319F481E002
S113048090E002C080E090E00F900F900F90DF9119
S1130490CF9108950F931F93CF93DF9300D01F92B2
S11304A0CDB7DEB79A8389836B8380910D019091D8
S11304B00E019C0189819A818C01020F131F0E94F5
S11304C00802F801808380910D0190910E01892B1F
S11304D0C9F480910D0190910E01282F89819A8190
S11304E0FC0180814B81622F0E941702019799F4CD
S11304F080910D0190910E01019690930E018093CD
S11305000D0109C080910D0190910E010196909307
S11305100E0180930D018B81882F90E09C01215066
S1130520310980910D0190910E012817390731F49A
S113053010920E0110920D0181E001C080E00F9035
S11305400F900F90DF91CF911F910F910895CF934A
S1130550DF93CDB7DEB72A970FB6F894DEBF0FBE90
S1130560CDBF9A87898728E0E0E0F1E0CE010196CB
S1130570DC0101900D922A95E1F789859A8560E066
S113058071E00E94D102892B11F481E001C080E066
S11305902A960FB6F894DEBF0FBECDBFDF91CF9180
S11305A00895FB01DC018D91019080190110D9F3AC
S10B05B0990B0895F894FFCFA4
S10B05B83C54455354303E004D
S9030000FC
