S01E0000323032342D4D5050322D4D61696E2D50726F6A6563742E737265633C
S11300000C9434000C9451000C9451000C94510045
S11300100C9451000C9451000C9451000C94C200A7
S11300200C9451000C9451000C9451000C949200C7
S11300300C9451000C9451000C9451000C947F00CA
S11300400C9451000C9451000C94F1000C94510048
S11300500C9451000C9451000C9451000C945100D8
S11300600C9451000C94510011241FBECFEFD8E022
S1130070DEBFCDBF11E0A0E0B1E0E2E1F7E002C0F5
S113008005900D92A830B107D9F721E0A8E0B1E0BE
S113009001C01D92A232B207E1F70E9453000C94F2
S11300A087030C9400000F931F93CF93DF93CDB776
S11300B0DEB78AE290E020EFFC01208384E290E046
S11300C02FE0FC0120830E9432010E94580163E06A
S11300D082E00E947B0165E081E00E947B010E9436
S11300E0D0010E94750300E010E02AE030E04AE00D
S11300F050E061E070E00E944C037894FFCF1F92BF
S11301000F9200905F000F921124CF93DF93CDB72D
S1130110DEB70000DF91CF910F9000925F000F9047
S11301201F9018951F920F9200905F000F92112458
S11301302F938F939F93EF93FF93CF93DF93CDB739
S1130140DEB78BE290E0209108012295207FFC012C
S11301502083809108018F5F8093080180910801BA
S11301608A3011F4109208010000DF91CF91FF91C1
S1130170EF919F918F912F910F9000925F000F90BC
S11301801F9018951F920F9200905F000F921124F8
S11301902F933F934F935F936F937F938F939F938B
S11301A0AF93BF93EF93FF93CF93DF93CDB7DEB7B6
S11301B00E9475030E94B2020000DF91CF91FF916B
S11301C0EF91BF91AF919F918F917F916F915F91CB
S11301D04F913F912F910F9000925F000F901F90CD
S11301E018951F920F9200905F000F9211242F9385
S11301F03F934F935F936F937F938F939F93AF93AB
S1130200BF93EF93FF93CF93DF93CDB7DEB768E04F
S113021070E08AE191E00E942B02019721F48AE1C7
S113022091E00E94880285E290E025E230E0F90145
S1130230308120E22327FC0120830000DF91CF914D
S1130240FF91EF91BF91AF919F918F917F916F91AA
S11302505F914F913F912F910F9000925F000F900B
S11302601F901895CF93DF93CDB7DEB784E890E065
S1130270FC011182108288E890E029E03DE3FC0152
S11302803183208381E890E021E830E0F901208186
S11302902860FC0120838FE690E02FE630E0F9012E
S11302A020812260FC0120830000DF91CF9108951A
S11302B0CF93DF93CDB7DEB782EB90E0FC011082E1
S11302C083EB90E02AEFFC01208380EB90E020EBAD
S11302D030E0F90120812260FC01208380E790E076
S11302E020E730E0F90120812260FC012083000036
S11302F0DF91CF910895CF93DF9300D0CDB7DEB7D0
S113030089836A838981882F90E081309105D1F0B7
S11303108230910559F1892B09F03CC085E490E0C5
S113032025E430E0F9012081287FFC01208385E465
S113033090E025E430E0F90130812A81232BFC018F
S1130340208328C081E890E021E830E0F901208191
S1130350287FFC01208381E890E021E830E0F90166
S113036030812A81232BFC01208314C081EB90E08F
S113037021EB30E0F9012081287FFC01208381EB0F
S113038090E021EB30E0F90130812A81232BFC013C
S11303902083000000000F900F90DF91CF9108950B
S11303A0CF93DF93CDB7DEB784EC90E027E630E05F
S11303B0FC013183208381EC90E028E9FC01208357
S11303C082EC90E026E0FC0120830000DF91CF91D5
S11303D00895CF93DF931F92CDB7DEB786EC90E0FC
S11303E0FC018081898389810F90DF91CF910895E9
S11303F0CF93DF9300D01F92CDB7DEB789836A8392
S11304004B838A81882331F489818C3319F481E008
S113041090E01BC08A81882331F489818C3319F0E0
S113042080E090E012C08A81282F30E08B81882FF1
S113043090E002972817390731F489818E3319F433
S113044081E090E002C080E090E00F900F900F9068
S1130450DF91CF9108950F931F93CF93DF9300D033
S11304601F92CDB7DEB79A8389836B83809109018C
S113047090910A019C0189819A818C01020F131FBA
S11304800E94E901F80180838091090190910A0199
S1130490892BC9F48091090190910A01282F89813F
S11304A09A81FC0180814B81622F0E94F80101979F
S11304B099F48091090190910A01019690930A019F
S11304C08093090109C08091090190910A01019664
S11304D090930A01809309018B81882F90E09C01FD
S11304E0215031098091090190910A012817390797
S11304F031F410920A011092090181E001C080E0F8
S11305000F900F900F90DF91CF911F910F9108954D
S1130510CF93DF93CDB7DEB72A970FB6F894DEBF3B
S11305200FBECDBF9A87898728E0E0E0F1E0CE01D5
S11305300196DC0101900D922A95E1F789859A854F
S113054060E071E00E947E03892B11F481E001C018
S113055080E02A960FB6F894DEBF0FBECDBFDF91C0
S1130560CF910895CF93DF9300D0CDB7DEB79A83B0
S1130570898389819A81FC01808191819C012F5F0B
S11305803F4F89819A81FC013183208389819A813B
S1130590FC0180819181873E93408CF089819A810E
S11305A027E130E0FC013183208389819A81FC01B9
S11305B082818F5F282F89819A81FC01228389811E
S11305C09A81FC0182818B3374F089819A81FC01C8
S11305D0128289819A81FC0183818F5F282F89810E
S11305E09A81FC01238389819A81FC0183818B3365
S11305F074F089819A81FC01138289819A81FC01BA
S113060084818F5F282F89819A81FC0124838981C9
S11306109A81FC018481883124F089819A81FC01CA
S1130620148200000F900F90DF91CF9108950F93E3
S11306301F93CF93DF93CDB7DEB727970FB6F89408
S1130640DEBF0FBECDBF9A8389836B834C832D831A
S11306501F830E832B8189819A81FC0124832C8141
S113066089819A81FC0123832D8189819A81FC01EE
S113067022832E813F8189819A81FC0131832083E9
S1130680000027960FB6F894DEBF0FBECDBFDF91F2
S1130690CF911F910F9108950F931F93CF93DF93E1
S11306A0CDB7DEB727970FB6F894DEBF0FBECDBF28
S11306B09A8389836B834C832D831F830E832E81BE
S11306C03F8189819A8189012D814C816B810E94AE
S11306D01703000027960FB6F894DEBF0FBECDBFF8
S11306E0DF91CF911F910F910895CF93DF93CDB7F1
S11306F0DEB78BE091E0DF91CF910895FB01DC013F
S11307008D91019080190110D9F3990B0895F894F3
S1050710FFCF15
S10B07123C54455354303E00F1
S9030000FC
