:100000000C9434000C9451000C9451000C94510049
:100010000C9451000C9451000C9451000C9451001C
:100020000C9451000C9451000C9451000C946A00F3
:100030000C9451000C9451000C9451000C945100FC
:100040000C9451000C9451000C947D000C945100C0
:100050000C9451000C9451000C9451000C945100DC
:100060000C9451000C94510011241FBECFEFD8E026
:10007000DEBFCDBF11E0A0E0B1E0EAE9F9E002C0E7
:1000800005900D92A030B107D9F721E0A0E0B1E0D2
:1000900001C01D92A531B207E1F70E9453000C94F4
:1000A000CB040C940000CF93DF93CDB7DEB784E28E
:1000B00090E024E230E0F90120812062FC012083FD
:1000C0000E94B80065E081E00E94DE000E943301DA
:1000D0007894FFCF1F920F9200905F000F9211242F
:1000E000CF93DF93CDB7DEB70000DF91CF910F90B4
:1000F00000925F000F901F9018951F920F92009032
:100100005F000F9211242F933F934F935F936F9350
:100110007F938F939F93AF93BF93EF93FF93CF936F
:10012000DF93CDB7DEB768E070E087E091E00E9432
:10013000750185E290E025E230E0F901308120E2AE
:100140002327FC0120830000DF91CF91FF91EF91E5
:10015000BF91AF919F918F917F916F915F914F91DF
:100160003F912F910F9000925F000F901F90189574
:10017000CF93DF93CDB7DEB784E890E0FC01118226
:10018000108288E890E029E03DE3FC013183208380
:1001900081E890E021E830E0F90120812860FC014D
:1001A00020838FE690E02FE630E0F9012081226085
:1001B000FC0120830000DF91CF910895CF93DF935E
:1001C00000D0CDB7DEB789836A838981882F90E01C
:1001D00081309105D1F08230910559F1892B09F0D8
:1001E0003CC085E490E025E430E0F9012081287FDF
:1001F000FC01208385E490E025E430E0F9013081C2
:100200002A81232BFC01208328C081E890E021E88B
:1002100030E0F9012081287FFC01208381E890E013
:1002200021E830E0F90130812A81232BFC01208371
:1002300014C081EB90E021EB30E0F9012081287FB0
:10024000FC01208381EB90E021EB30E0F90130816B
:100250002A81232BFC012083000000000F900F90C7
:10026000DF91CF910895CF93DF93CDB7DEB784ECC4
:1002700090E027E630E0FC013183208381EC90E0C0
:1002800028E9FC01208382EC90E026E0FC01208339
:100290000000DF91CF910895CF93DF931F92CDB7E8
:1002A000DEB786EC90E0FC018081898389810F9024
:1002B000DF91CF910895CF93DF9300D01F92CDB7F8
:1002C000DEB789836A834B838A81882331F48981ED
:1002D0008C3319F481E090E002C080E090E00F9050
:1002E0000F900F90DF91CF9108950F931F93CF93AD
:1002F000DF9300D01F92CDB7DEB79A8389836B83DB
:1003000080910001909101019C0189819A818C0169
:10031000020F131F0E944C01F8018083809100019D
:1003200090910101892BC9F4809100019091010104
:10033000282F89819A81FC0180814B81622F0E9444
:100340005B01019799F48091000190910101019660
:10035000909301018093000109C080910001909168
:100360000101019690930101809300018B81882FF8
:1003700090E09C0121503109809100019091010190
:100380002817390709F58091000190910101582F34
:100390008B81882F90E0019729813A81820F931FEA
:1003A000FC0180814B81652F0E945B01019761F404
:1003B000109201011092000184E68F938AE08F93DE
:1003C0000E94ED010F900F9000000F900F900F9082
:1003D000DF91CF911F910F910895A0E0B0E0E3EF7E
:1003E000F1E00C94A404AE014B5F5F4FFA01619100
:1003F0007191AF0180911101909112010E9403024D
:10040000E2E00C94C004ABE0B0E0E9E0F2E00C9470
:1004100094046C017B018A01FC011782168283819E
:1004200081FFCCC1CE0101963C01F6019381F70119
:1004300093FD859193FF81917F01882309F4BAC1CF
:10044000853239F493FD859193FF81917F01853247
:1004500029F4B60190E00E94FA03E7CF912C212CF9
:10046000312CFFE1F315D8F08B3279F038F480327B
:1004700079F08332A1F4232D20611DC08D3261F00B
:10048000803369F4232D216016C0832D8260382EBD
:10049000E32DE4603E2E2AC0F32DF8601DC037FC2A
:1004A0002DC020ED280F2A3040F08E32B9F436FCF2
:1004B00081C1232D2064322E19C036FE06C08AE089
:1004C000989E200D1124922E11C0EAE02E9E200D40
:1004D0001124222EF32DF0623F2E08C08C3621F419
:1004E000832D8068382E02C0883641F4F70193FDD1
:1004F000859193FF81917F018111B3CF982F9F7DCB
:100500009554933028F40C5F1F4F9FE399830DC0DF
:10051000833631F0833771F0833509F059C021C03B
:10052000F801808189830E5F1F4F88248394912C6A
:10053000530113C02801F2E04F0E511CF801A080B6
:10054000B18036FE03C0692D70E002C06FEF7FEF0F
:10055000C5010E94EF034C018201F32DFF773F2E6E
:1005600016C0280122E0420E511CF801A080B18083
:1005700036FE03C0692D70E002C06FEF7FEFC5014A
:100580000E94E4034C01F32DF0683F2E820133FCFE
:100590001BC0822D90E088169906B0F4B60180E267
:1005A00090E00E94FA032A94F4CFF50137FC85917C
:1005B00037FE81915F01B60190E00E94FA0321109D
:1005C0002A9421E0821A91088114910471F7E8C0FD
:1005D000843611F0893641F5F80137FE07C0608195
:1005E0007181828193810C5F1F4F08C0608171818E
:1005F000072E000C880B990B0E5F1F4FF32DFF7613
:100600003F2E97FF09C090958095709561957F4F1B
:100610008F4F9F4FF0683F2E2AE030E0A3010E94E9
:100620003604882E861845C0853731F4232D2F7E59
:10063000B22E2AE030E025C0932D997FB92E8F3657
:10064000C1F018F4883579F0B5C0803719F08837D3
:1006500021F0B0C0E92FE061BE2EB4FE0DC0FB2D2D
:10066000F460BF2E09C034FE0AC0292F2660B22EC6
:1006700006C028E030E005C020E130E002C020E103
:1006800032E0F801B7FE07C06081718182819381F9
:100690000C5F1F4F06C06081718180E090E00E5FAB
:1006A0001F4FA3010E943604882E8618FB2DFF776A
:1006B0003F2E36FE0DC0232D2E7FA22E891458F416
:1006C00034FE0BC032FC09C0832D8E7EA82E05C0DF
:1006D000B82CA32C03C0B82C01C0B92CA4FE0FC0A9
:1006E000FE01E80DF11D8081803321F49A2D997E61
:1006F000A92E09C0A2FE06C0B394B39404C08A2DEB
:10070000867809F0B394A3FC11C0A0FE06C0B21411
:1007100088F4280C922C9B180EC0B21460F4B60119
:1007200080E290E00E94FA03B394F7CFB21418F479
:100730002B1802C0982C212CA4FE10C0B60180E317
:1007400090E00E94FA03A2FE17C0A1FC03C088E754
:1007500090E002C088E590E0B6010CC08A2D867852
:1007600059F0A1FE02C08BE201C080E2A7FC8DE23D
:10077000B60190E00E94FA03891438F4B60180E3D0
:1007800090E00E94FA039A94F7CF8A94F301E80D5F
:10079000F11D8081B60190E00E94FA038110F5CF2F
:1007A000222009F442CEB60180E290E00E94FA03D2
:1007B0002A94F6CFF6018681978102C08FEF9FEFD2
:1007C0002B96E2E10C94B004FC010590615070405E
:1007D0000110D8F7809590958E0F9F1F0895FC010A
:1007E0006150704001900110D8F7809590958E0F60
:1007F0009F1F08950F931F93CF93DF93FB012381D6
:1008000021FD03C08FEF9FEF2CC022FF16C0468151
:100810005781248135814217530744F4A081B18167
:100820009D012F5F3F4F318320838C932681378139
:100830002F5F3F4F3783268314C08B01EC01FB01F0
:100840000084F185E02D0995892BE1F6D8011696F3
:100850008D919C911797019617969C938E9316975E
:10086000CE01DF91CF911F910F910895FA01AA2730
:10087000283051F1203181F1E8946F936E7F6E5FE3
:100880007F4F8F4F9F4FAF4FB1E03ED0B4E03CD091
:10089000670F781F891F9A1FA11D680F791F8A1F74
:1008A000911DA11D6A0F711D811D911DA11D20D0DB
:1008B00009F468943F912AE0269F11243019305D95
:1008C0003193DEF6CF010895462F4770405D419386
:1008D000B3E00FD0C9F7F6CF462F4F70405D4A33D3
:1008E00018F0495D31FD4052419302D0A9F7EACF9B
:1008F000B4E0A6959795879577956795BA95C9F7CA
:1009000000976105710508959B01AC010A2E0694BC
:100910005795479537952795BA95C9F7620F731F75
:10092000841F951FA01D08952F923F924F925F92B2
:100930006F927F928F929F92AF92BF92CF92DF92EF
:10094000EF92FF920F931F93CF93DF93CDB7DEB754
:10095000CA1BDB0B0FB6F894DEBF0FBECDBF0994E8
:100960002A88398848885F846E847D848C849B843F
:10097000AA84B984C884DF80EE80FD800C811B814D
:10098000AA81B981CE0FD11D0FB6F894DEBF0FBE7C
:0A099000CDBFED010895F894FFCFEC
:00000001FF
