:100000000C9434000C9451000C9451000C94510049
:100010000C9451000C9451000C9451000C94CC00A1
:100020000C9451000C9451000C9451000C94B900A4
:100030000C9451000C9451000C948A000C945100C3
:100040000C9451000C9451000C94F9000C94510044
:100050000C9451000C9451000C9451000C945100DC
:100060000C9451000C94510011241FBECFEFD8E026
:10007000DEBFCDBF11E0A0E0B1E0ECE1FBE002C0EB
:1000800005900D92A231B107D9F721E0A2E1B1E0CC
:1000900001C01D92A433B207E1F70E9453000C94F3
:1000A0008C050C9400000F931F93CF93DF93CDB773
:1000B000DEB78AE290E020EFFC01208384E290E04A
:1000C0002FE0FC01208387E290E023E0FC01208305
:1000D0000E943A010E945D010E94830165E080E078
:1000E0000E94A60163E082E00E94A60165E081E033
:1000F0000E94A6010E94FB010E94AC0300E010E0F8
:1001000020E030E042E250E06CE070E00E948303C7
:100110007894FFCF1F920F9200905F000F921124EE
:100120002F933F934F935F936F937F938F939F93FF
:10013000AF93BF93EF93FF93CF93DF93CDB7DEB72A
:100140000E94AC030E94B5030000DF91CF91FF91A4
:10015000EF91BF91AF919F918F917F916F915F913F
:100160004F913F912F910F9000925F000F901F9041
:1001700018951F920F9200905F000F921124CF9359
:10018000DF93CDB7DEB70000DF91CF910F900092E3
:100190005F000F901F9018951F920F9200905F00C4
:1001A0000F9211242F933F934F935F936F937F93FD
:1001B0008F939F93AF93BF93EF93FF93CF93DF936F
:1001C000CDB7DEB70E9477030000DF91CF91FF919A
:1001D000EF91BF91AF919F918F917F916F915F91BF
:1001E0004F913F912F910F9000925F000F901F90C1
:1001F00018951F920F9200905F000F9211242F9379
:100200003F934F935F936F937F938F939F93AF939E
:10021000BF93EF93FF93CF93DF93CDB7DEB768E043
:1002200070E08CE291E00E945602019721F48CE28A
:1002300091E00E94B30285E290E025E230E0F9010E
:10024000308120E22327FC0120830000DF91CF9141
:10025000FF91EF91BF91AF919F918F917F916F919E
:100260005F914F913F912F910F9000925F000F90FF
:100270001F901895CF93DF93CDB7DEB786E490E05B
:10028000FC01108288E490E02AEFFC01208384E4E2
:1002900090E024E430E0F90120812260FC01208319
:1002A0008EE690E02EE630E0F90120812260FC012C
:1002B00020830000DF91CF910895CF93DF93CDB7D6
:1002C000DEB784E890E0FC011182108288E890E0BB
:1002D00029E03DE3FC013183208381E890E021E8BF
:1002E00030E0F90120812860FC0120838FE690E056
:1002F0002FE630E0F90120812260FC01208300001C
:10030000DF91CF910895CF93DF93CDB7DEB782EB26
:1003100090E0FC01108283EB90E02AEFFC01208347
:1003200080EB90E020EB30E0F90120812260FC01BD
:10033000208380E790E020E730E0F901208122600F
:10034000FC0120830000DF91CF910895CF93DF93CC
:1003500000D0CDB7DEB789836A838981882F90E08A
:1003600081309105D1F08230910559F1892B09F046
:100370003CC085E490E025E430E0F9012081287F4D
:10038000FC01208385E490E025E430E0F901308130
:100390002A81232BFC01208328C081E890E021E8FA
:1003A00030E0F9012081287FFC01208381E890E082
:1003B00021E830E0F90130812A81232BFC012083E0
:1003C00014C081EB90E021EB30E0F9012081287F1F
:1003D000FC01208381EB90E021EB30E0F9013081DA
:1003E0002A81232BFC012083000000000F900F9036
:1003F000DF91CF910895CF93DF93CDB7DEB784EC33
:1004000090E027E630E0FC013183208381EC90E02E
:1004100028E9FC01208382EC90E026E0FC012083A7
:100420000000DF91CF910895CF93DF931F92CDB756
:10043000DEB786EC90E0FC018081898389810F9092
:10044000DF91CF910895CF93DF9300D01F92CDB766
:10045000DEB789836A834B838A81882331F489815B
:100460008C3319F481E090E01BC08A81882331F439
:1004700089818C3319F080E090E012C08A81282FA6
:1004800030E08B81882F90E002972817390731F4EC
:1004900089818E3319F481E090E002C080E090E021
:1004A0000F900F900F90DF91CF9108950F931F93AE
:1004B000CF93DF9300D01F92CDB7DEB79A838983A5
:1004C0006B8380911201909113019C0189819A8123
:1004D0008C01020F131F0E941402F8018083809187
:1004E000120190911301892BC9F48091120190910E
:1004F0001301282F89819A81FC0180814B81622F11
:100500000E942302019799F48091120190911301A6
:100510000196909313018093120109C080911201FA
:1005200090911301019690931301809312018B8196
:10053000882F90E09C012150310980911201909107
:1005400013012817390731F4109213011092120188
:1005500081E001C080E00F900F900F90DF91CF916C
:100560001F910F910895CF93DF93CDB7DEB72A97F0
:100570000FB6F894DEBF0FBECDBF9A87898728E0FB
:10058000EAE0F1E0CE010196DC0101900D922A959E
:10059000E1F789859A856AE071E00E948305892BDD
:1005A00011F481E001C080E02A960FB6F894DEBF16
:1005B0000FBECDBFDF91CF910895CF93DF9300D0D1
:1005C000CDB7DEB79A83898389819A81FC018081C6
:1005D00091819C012F5F3F4F89819A81FC0131837A
:1005E000208389819A81FC0180819181873E93409B
:1005F0008CF089819A8127E130E0FC0131832083EE
:1006000089819A81FC0182818F5F282F89819A815B
:10061000FC01228389819A81FC0182818B3374F0F1
:1006200089819A81FC01128289819A81FC018381EE
:100630008F5F282F89819A81FC01238389819A8188
:10064000FC0183818B3374F089819A81FC011382D0
:1006500089819A81FC0184818F5F282F89819A8109
:10066000FC01248389819A81FC018481883124F0F2
:1006700089819A81FC01148200000F900F90DF9114
:10068000CF9108950F931F93CF93DF93CDB7DEB72C
:1006900027970FB6F894DEBF0FBECDBF9A8389832C
:1006A0006B834C832D831F830E832B8189819A81D9
:1006B000FC0124832C8189819A81FC0123832D8173
:1006C00089819A81FC0122832E813F8189819A81CF
:1006D000FC0131832083000027960FB6F894DEBF1B
:1006E0000FBECDBFDF91CF911F910F910895CF9392
:1006F000DF93CDB7DEB784E191E00E94DD02000018
:10070000DF91CF9108950F931F93CF93DF93CDB7D0
:10071000DEB727970FB6F894DEBF0FBECDBF9A8322
:1007200089836B834C832D831F830E832E813F81AE
:1007300089819A8189012D814C816B810E944203BC
:10074000000027960FB6F894DEBF0FBECDBFDF9135
:10075000CF911F910F910895CF93DF93CDB7DEB75F
:1007600084E191E0DF91CF910895CF93DF9300D0A2
:10077000CDB7DEB79A83898389819A810E947904F3
:100780000E94C80300000F900F90DF91CF91089551
:10079000CF93DF93CDB7DEB7809121018823F1F4A9
:1007A0008BE290E02BE230E0F9012081422F4F7084
:1007B00020912101222F30E0275E3E4FF901208158
:1007C000222F30E022953295307F3227207F32274A
:1007D000242BFC01208381E00E94220480912101CE
:1007E000882309F1809121018830E8F48BE290E0C0
:1007F0002BE230E0F9012081422F4F70209121013E
:10080000222F30E0275E3E4FF9012081222F30E079
:1008100022953295307F3227207F3227242BFC010E
:1008200020830E945C04809121018F5F80932101CD
:1008300080912101893010F0109221010000DF9198
:10084000CF910895CF93DF931F92CDB7DEB7898301
:1008500089818823A9F485E290E025E230E0F9015E
:1008600020812E7FFC0120830E945C0485E290E0C1
:1008700025E230E0F90120812E7FFC01208317C0A2
:1008800089818130A1F485E290E025E230E0F90130
:1008900020812160FC0120830E945C0485E290E0BD
:1008A00025E230E0F90120812E7FFC012083000049
:1008B0000F90DF91CF910895CF93DF93CDB7DEB73F
:1008C00085E290E025E230E0F90120812260FC0120
:1008D000208300000000000085E290E025E230E087
:1008E000F90120812D7FFC0120830000DF91CF9151
:1008F0000895CF93DF9300D0CDB7DEB79A83898375
:1009000089819A81FC018081918124E630E0B901DE
:100910000E945B052AE030E0B9010E945B05CB0133
:1009200080509F4FFC0180818093190189819A81B9
:10093000FC018081918124E630E0B9010E945B05D1
:10094000CB0180509F4FFC01808180931A018981E7
:100950009A81FC01928187E69802812D1124282F2B
:1009600025952595892F880F880BF22FF81B8F2F3F
:10097000880F282F220F220F820F292F281B822F4A
:10098000082E000C990B80509F4FFC0180818093B2
:100990001B0189819A81FC01828197E68902912D50
:1009A000112495959595880F880BF92FF81B8F2F9B
:1009B000082E000C990B80509F4FFC018081809382
:1009C0001C0189819A81FC01938187E69802812D1F
:1009D0001124282F25952595892F880F880BF22F14
:1009E000F81B8F2F880F282F220F220F820F292FFD
:1009F000281B822F082E000C990B80509F4FFC0162
:100A0000808180931D0189819A81FC01838197E611
:100A10008902912D112495959595880F880BF92FB2
:100A2000F81B8F2F082E000C990B80509F4FFC0154
:100A3000808180931E0189819A81FC01948187E6DF
:100A40009802812D1124282F25952595892F880F0F
:100A5000880BF22FF81B8F2F880F282F220F220FC1
:100A6000820F292F281B822F082E000C990B8050F3
:100A70009F4FFC01808180931F0189819A81FC0135
:100A8000848197E68902912D112495959595880F7B
:100A9000880BF92FF81B8F2F082E000C990B805014
:100AA0009F4FFC0180818093200100000F900F90E8
:100AB000DF91CF91089597FB072E16F4009407D08D
:100AC00077FD09D00E946F0507FC05D03EF4909594
:100AD00081959F4F0895709561957F4F0895AA1B4A
:100AE000BB1B51E107C0AA1FBB1FA617B70710F019
:100AF000A61BB70B881F991F5A95A9F7809590954B
:100B0000BC01CD010895FB01DC018D91019080199C
:0C0B10000110D9F3990B0895F894FFCF61
:100B1C00000102030405060708093C5445535430F0
:020B2C003E0089
:00000001FF
