:100000000C9434000C9451000C9451000C94510049
:100010000C9451000C9451000C9451000C9451001C
:100020000C9451000C9451000C9451000C948B00D2
:100030000C9451000C9451000C9451000C946B00E2
:100040000C9451000C9451000C949E000C9451009F
:100050000C9451000C9451000C9451000C945100DC
:100060000C9451000C94510011241FBECFEFD8E026
:10007000DEBFCDBF11E0A0E0B1E0EAE0F4E002C0F5
:1000800005900D92A030B107D9F721E0A0E0B1E0D2
:1000900001C01D92A131B207E1F70E9453000C94F8
:1000A00003020C940000CF93DF93CDB7DEB78AE252
:1000B00090E020EFFC01208384E290E02FE0FC013F
:1000C00020830E94D90063E080E00E94FC000E942F
:1000D00051017894FFCF1F920F9200905F000F9212
:1000E00011248F939F93CF93DF93CDB7DEB7809189
:1000F000000190910101019690930101809300010C
:100100000000DF91CF919F918F910F9000925F003F
:100110000F901F9018951F920F9200905F000F9202
:100120001124CF93DF93CDB7DEB70000DF91CF91DD
:100130000F9000925F000F901F9018951F920F92E2
:1001400000905F000F9211242F933F934F935F9382
:100150006F937F938F939F93AF93BF93EF93FF938F
:10016000CF93DF93CDB7DEB768E070E089E091E030
:100170000E94930185E290E025E230E0F9013081B0
:1001800020E22327FC0120830000DF91CF91FF9123
:10019000EF91BF91AF919F918F917F916F915F91FF
:1001A0004F913F912F910F9000925F000F901F9001
:1001B0001895CF93DF93CDB7DEB786E490E0FC01CE
:1001C000108288E490E02AEFFC01208384E490E030
:1001D00024E430E0F90120812260FC0120838EE6D6
:1001E00090E02EE630E0F90120812460FC012083BC
:1001F0000000DF91CF910895CF93DF9300D0CDB76A
:10020000DEB789836A838981882F90E081309105E8
:10021000D1F08230910559F1892B09F03CC085E479
:1002200090E025E430E0F9012081287FFC01208363
:1002300085E490E025E430E0F90130812A81232B28
:10024000FC01208328C081E890E021E830E0F9013A
:100250002081287FFC01208381E890E021E830E0C4
:10026000F90130812A81232BFC01208314C081EB0A
:1002700090E021EB30E0F9012081287FFC01208310
:1002800081EB90E021EB30E0F90130812A81232BD2
:10029000FC012083000000000F900F90DF91CF91B0
:1002A0000895CF93DF93CDB7DEB784EC90E027E6D7
:1002B00030E0FC013183208381EC90E028E9FC01EF
:1002C000208382EC90E026E0FC0120830000DF9197
:1002D000CF910895CF93DF931F92CDB7DEB786EC11
:1002E00090E0FC018081898389810F90DF91CF911B
:1002F0000895CF93DF9300D01F92CDB7DEB78983E7
:100300006A834B838A81882331F489818C3319F481
:1003100081E090E002C080E090E00F900F900F909D
:10032000DF91CF9108950F931F93CF93DF9300D068
:100330001F92CDB7DEB79A8389836B8380910201C8
:10034000909103019C0189819A818C01020F131FF6
:100350000E946A01F801808380910201909103015B
:10036000892BC9F48091020190910301282F898182
:100370009A81FC0180814B81622F0E947901019753
:1003800099F48091020190910301019690930301E9
:100390008093020109C080910201909103010196AE
:1003A00090930301809302018B81882F90E09C0140
:1003B00021503109809102019091030128173907DA
:1003C000C9F48091020190910301582F8B81882FED
:1003D00090E0019729813A81820F931FFC0180816F
:1003E0004B81652F0E947901019721F4109203013E
:1003F0001092020100000F900F900F90DF91CF91AB
:0A0400001F910F910895F894FFCFAB
:00000001FF
