:100000000C9434000C9451000C9451000C94510049
:100010000C9451000C9451000C9451000C9451001C
:100020000C9451000C9451000C9451000C948600D7
:100030000C9451000C9451000C9451000C945100FC
:100040000C9451000C9451000C9499000C945100A4
:100050000C9451000C9451000C9451000C945100DC
:100060000C9451000C94510011241FBECFEFD8E026
:10007000DEBFCDBF11E0A0E0B1E0E6E0F4E002C0F9
:1000800005900D92A030B107D9F721E0A0E0B1E0D2
:1000900001C01D92AF30B207E1F70E9453000C94EB
:1000A00001020C940000CF93DF93CDB7DEB78AE254
:1000B00090E020EFFC0120830E94D40065E081E005
:1000C0000E94FA000E944F0178940E946800FDCFC0
:1000D000CF93DF9300D0CDB7DEB71A8219820CC060
:1000E0008BE290E029812295207FFC012083898189
:1000F0009A8101969A83898389819A810A9784F3E8
:1001000000000F900F90DF91CF9108951F920F92F2
:1001100000905F000F921124CF93DF93CDB7DEB72D
:100120000000DF91CF910F9000925F000F901F9021
:1001300018951F920F9200905F000F9211242F9339
:100140003F934F935F936F937F938F939F93AF935F
:10015000BF93EF93FF93CF93DF93CDB7DEB768E004
:1001600070E087E091E00E94910185E290E025E255
:1001700030E0F901308120E22327FC0120830000D8
:10018000DF91CF91FF91EF91BF91AF919F918F91AF
:100190007F916F915F914F913F912F910F900092BE
:1001A0005F000F901F901895CF93DF93CDB7DEB708
:1001B00084E890E0FC011182108288E890E029E058
:1001C0003DE3FC013183208381E890E021E830E0C9
:1001D000F90120812860FC0120838FE690E02FE662
:1001E00030E0F90120812260FC0120830000DF91D2
:1001F000CF910895CF93DF9300D0CDB7DEB7898339
:100200006A838981882F90E081309105D1F0823016
:10021000910559F1892B09F03CC085E490E025E473
:1002200030E0F9012081287FFC01208385E490E003
:1002300025E430E0F90130812A81232BFC01208361
:1002400028C081E890E021E830E0F9012081287F92
:10025000FC01208381E890E021E830E0F901308161
:100260002A81232BFC01208314C081EB90E021EB39
:1002700030E0F9012081287FFC01208381EB90E0B0
:1002800021EB30E0F90130812A81232BFC0120830E
:10029000000000000F900F90DF91CF910895CF9351
:1002A000DF93CDB7DEB784EC90E027E630E0FC01C9
:1002B0003183208381EC90E028E9FC01208382ECEB
:1002C00090E026E0FC0120830000DF91CF910895AB
:1002D000CF93DF931F92CDB7DEB786EC90E0FC01A1
:1002E0008081898389810F90DF91CF910895CF9389
:1002F000DF9300D01F92CDB7DEB789836A834B832B
:100300008A81882331F489818C3319F481E090E06B
:1003100002C080E090E00F900F900F90DF91CF919E
:1003200008950F931F93CF93DF9300D01F92CDB703
:10033000DEB79A8389836B838091000190910101DC
:100340009C0189819A818C01020F131F0E94680110
:10035000F80180838091000190910101892BC9F4FB
:100360008091000190910101282F89819A81FC01DF
:1003700080814B81622F0E947701019799F48091CF
:100380000001909101010196909301018093000179
:1003900009C08091000190910101019690930101A3
:1003A000809300018B81882F90E09C0121503109BE
:1003B000809100019091010128173907C9F48091BB
:1003C000000190910101582F8B81882F90E00197B7
:1003D00029813A81820F931FFC0180814B81652F17
:1003E0000E947701019721F41092010110920001FF
:1003F00000000F900F900F90DF91CF911F910F9100
:060400000895F894FFCFFF
:00000001FF
